:020000040800F2
:10000000A009002069240008F5060008F70600088A
:10001000FB060008FF0600080307000800000000B8
:1000200000000000000000000000000007070008BA
:1000300009070008000000000B0700080D07000872
:1000400083240008832400088324000883240008F4
:1000500083240008832400088324000883240008E4
:1000600083240008832400088324000883240008D4
:1000700083240008832400088324000883240008C4
:1000800083240008832400088324000883240008B4
:1000900081220008832400088324000883240008A8
:1000A0008324000883240008832400088324000894
:1000B000832400082D0400088324000883240008FA
:1000C0008324000883240008832400088324000874
:1000D000832400083B2400088324000883240008AC
:1000E0008324000883240008832400088324000854
:1000F0008324000883240008832400088324000844
:100100008324000883240008832400088324000833
:100110008324000883240008832400088324000823
:100120008324000883240008832400088324000813
:1001300000F002F800F045F80AA090E8000C8244B4
:100140008344AAF10107DA4501D100F03AF8AFF291
:10015000090EBAE80F0013F0010F18BFFB1A43F0A5
:10016000010318471C5500003C550000103A24BFFD
:1001700078C878C1FAD8520724BF30C830C144BF0C
:1001800004680C607047000000230024002500264E
:10019000103A28BF78C1FBD8520728BF30C148BFEA
:1001A0000B607047642904F0A783782904F0E0838A
:1001B000732904F05085002070471FB51FBD10B58E
:1001C00010BD04F07BFD1146FFF7F7FF00F055F876
:1001D00004F099FD03B4FFF7F2FF03BC02F0D0F87E
:1001E0007FB505460C460121022002F0EEFCADF879
:1001F0000850ADF804400020ADF80A00ADF8060044
:1002000001A9E04803F008FD01221146DD4804F091
:100210007AF81D208DF8000000208DF801000320E1
:100220008DF8020001208DF80300684602F041F9C4
:100230000121D44804F04CF87FBD10B5D2A004F0E1
:1002400025FBDE4803230622C168002001F002FBE3
:10025000DBA004F01BFBD94804230722C16800205F
:1002600001F0F8FAE3A004F011FBD44805230F22B3
:10027000C168002001F0EEFA10BD94B002F012F84F
:1002800002F078F84FF4E13002F088F801F0A0FEB7
:1002900000214FF4FA7001F09CFF0020E2498861D0
:1002A000C8610862E148E249DF4A03C2E149E24825
:1002B000083AC2E902100846DF49C2E90401DFA09A
:1002C00000681390042113A800F038FB4FF47A70F3
:1002D00002F024F8B948C168002001F006FB0020B4
:1002E00001F0B5FBD6A004F0D1FA2C22E24909A80E
:1002F00004F00DFC24220BA9684604F008FCAF486A
:10030000C1680020DDE9092301F0D8F84FF47A70C4
:1003100002F004F8D9A004F0B9FA2C22D6492C3105
:1003200009A804F0F4FB24220BA9684604F0EFFBB3
:10033000A248C1680020DDE9092301F0BFF84FF4AD
:100340007A7001F0EBFF0021084600F0EFFB9B48BC
:100350000422C168002001F003FC9848D54AC16816
:10036000002001F01BFC9548D24A5242C16800208F
:1003700001F034FC9148D04AC168002001F04EFCE5
:100380008E48CD4A5242C168002001F077FC8B486C
:10039000CA4AC168002001F090FC8848C84AC16878
:1003A000002001F0AAFC8548C64AC168002001F07F
:1003B000C4FC8248C44AC168002001F0DEFC7F48CA
:1003C000C14AC168002001F0F8FC7C48BF4AC168FE
:1003D000002001F032FD7948BC4AC168002001F0DC
:1003E0004CFD764840F2E242C168002001F065FD14
:1003F000724840F2E242C168002001F080FD6F487F
:1004000042F6F822C168002001F09BFD6B484FF4D2
:100410007972C168002001F0B6FDFFF70EFFC72119
:1004200040F2CF20FFF7DCFE00BFFEE72DE9F047EA
:100430008AB0A7A103C9CDE90801002401215148D0
:1004400004F00FFA00287DD001214E4804F01AFA7A
:100450007548406AA049096808449F4908600846F1
:100460000068B0F5FA7F02DD4FF4FA7008609A4830
:10047000006810F5FA7F02DA9848974908609648B4
:100480000088ADF82200042000904C4808AB4FF4DF
:10049000A052C168002001F06EF9002000F058FB66
:1004A000502001F018FF8E48D0F81D4042F2107025
:1004B000001B5D49886189695B4AD269022303FB9D
:1004C0001211594A126A881804F0FFFC0546564872
:1004D000D0E904733A46284604F00EFDCDE9040144
:1004E0005149886904F0F1FC05464F48D0E9027390
:1004F0003A46284604F000FD81468A464A49896901
:10050000494AD269881A04F0E0FC05464648D0E919
:1005100000733A46284604F0EFFC4A465346CDE9BC
:10052000000104F0FBFBCDE90201DDE9042304F046
:10053000F5FBCDE9060104F099FC3B494862084609
:10054000C06900E01BE0086208468069C861214676
:1005500064A004F09BF965480068083063490860AE
:1005600008460068B0F5805F09DD0020086060483B
:10057000006808B9012000E000205D4908600AB069
:10058000BDE8F087000400400A4E6F646549645B73
:10059000335D2D2D2D2D2D2D2D2D2D2D2D2D2D2D55
:1005A0002D73657420307830362D2D2D2D2D2D2D69
:1005B0002D2D2D2D2D2D2D2D0A000000B8000020F1
:1005C0000A4E6F646549645B335D2D2D2D2D2D2DF5
:1005D0002D2D2D2D2D2D2D2D2D7365742030783042
:1005E000372D2D2D2D2D2D2D2D2D2D2D2D2D2D2D31
:1005F0000A0000000A4E6F646549645B335D2D2D6F
:100600002D2D2D2D2D2D2D2D2D2D2D2D2D73657455
:1006100020307830662D2D2D2D2D2D2D2D2D2D2D8D
:100620002D2D2D2D0A000000400000209A99999947
:100630009999B93F7B14AE47E17A843F0304017F67
:100640000A4E6F646549645B335D2D2D2D2D2D2D74
:100650002D2D2D2D2D2D2D2D2D50444F2031383069
:100660003068204346472D2D2D2D2D2D2D2D2D2D40
:100670002D2D2D2D2D0A0000CC5200080A4E6F643E
:100680006549645B335D2D2D2D2D2D2D2D2D2D2DAB
:100690002D2D2D2D2D50444F2031343031682043E5
:1006A00046472D2D2D2D2D2D2D2D2D2D2D2D2D2D47
:1006B0002D0A0000C0B4B3FF00F7C2FF0065CD1DD6
:1006C0000084D717005A62028033023B00CA9A3B6B
:1006D0000F00000000000000040000200CFEFFFFDF
:1006E000C8000020256C64200000000000000020ED
:1006F00094012342704700BFFEE700BFFEE700BF42
:10070000FEE700BFFEE77047704770477047000084
:100710000CB50020019000906B48006840F48030D8
:100720006949086000BF6848006800F40030009024
:100730000198401C0190009818B90198B0F5A06F7D
:10074000F1D16148006810F4003F02D00120009010
:1007500001E0002000900098012842D15B48006829
:1007600040F01000594908600846006820F0030076
:1007700008600846006840F002000860524840687F
:10078000514948600846406848600846406840F45F
:10079000806048600846406820F47C104860084645
:1007A000406840F4E81048600846006840F08070F7
:1007B000086000BF4448006810F0007FFAD042484B
:1007C000406820F00300404948600846406840F017
:1007D0000200486000BF3C48406800F00C00082858
:1007E000F9D10CBD10B5FFF793FF10BD10B5364819
:1007F000006840F001003449086008464068344908
:1008000008403149486008460068324908402E498E
:1008100008600846006820F48020086008464068A8
:1008200020F4FE0048604FF41F008860FFF7DAFFF5
:100830004FF000602849086010BD10B5002100206D
:100840000022214B5B6803F00C0121B1042906D082
:10085000082928D107E0214B214C236027E01F4BBA
:100860001F4C236023E0184B5B6803F47010164B99
:100870005B6803F48032022303EB904022B9194BEA
:100880004343174C23600DE00F4B5B6813F4003FAC
:1008900004D0144B4343124C236003E00F4B4343FB
:1008A0000F4C236003E00D4B0D4C236000BF00BFD5
:1008B000054B5B68C3F303130B4CE15C084B1B68EF
:1008C000CB40074C236010BD0010024000200240C6
:1008D0000000FFF8FFFFF6FE08ED00E000127A00CE
:1008E0000800002000093D000C0000200FB410B5E6
:1008F000044603A80FC801F009FC002010BC5DF8F5
:1009000014FB2DE9F04106460F4614469846002593
:1009100023463A463146F0A003F0B8FF00BF06E098
:1009200018F80510F3A003F0B1FF681CC5B2A5428A
:10093000F6DBF1A003F0AAFFBDE8F08170B5064632
:100940000D460024042D01DD012070BD00240BE0C4
:10095000305DEA4941F82400084650F82420214639
:10096000E7A003F093FF641CAC42F1DB0020ECE74E
:100970000FB470B50446059800F4F060B0F5B06FA0
:1009800014D1E449059808609DF8210048739DF84A
:1009900021200DF11901DF48401D04F073F80120FA
:1009A000DC498873002070BC5DF814FB059800F4E6
:1009B000F060B0F5E06F20D1002100BF1AE0CF4811
:1009C00050F82100059A02F07F02904211D1D24ADC
:1009D00002EB0112059810609DF81900CE4A02EB57
:1009E000011210710120CC4A02EB01121073002099
:1009F000D9E7491C0429E2DB61E00598B0F5C07F26
:100A00003BD940F27F510598884236D2002100221E
:100A100000BF09E0059800F07F00B84B53F8213083
:100A2000984200D102E0491C0429F3DB00BF05987D
:100A300000F4F060A0F5C070020A042A01DC002A6C
:100A400001DA0120AFE702EBC200B44B03EB8000F8
:100A500001EBC1031844DDF819300360DDF81D30E7
:100A60004360012002EBC203AC4D05EB830301EBB5
:100A7000C1052B441872002095E7059880281CD9E1
:100A80000598FF2819D2002100BF13E09B4850F8B9
:100A90002100059A02F07F0290420AD1A04800EBA3
:100AA000C100DDF819200260DDF81D204260002041
:100AB00079E7491C0429E9DB01E0012073E7002004
:100AC00071E770B586B006460C46154600200290C8
:100AD0008DF80C0002208DF81500E8B28DF80D009D
:100AE0008DF80E4005980090304602A90EC9FFF718
:100AF000FDFE06B070BD70B504460D468122294644
:100B00002046FFF7DEFF70BD70B504460D46822219
:100B100029462046FFF7D5FF70BD70B504460D4647
:100B2000802229462046FFF7CCFF70BD70B50446F1
:100B30000D46012229462046FFF7C3FF70BD70B560
:100B400004460D46022229462046FFF7BAFF70BD33
:100B500010B586B004468020029000208DF80C006D
:100B600001208DF8150000208DF80D0005980090EB
:100B7000204602A90EC9FFF7B9FE06B010BD10B598
:100B800004466849601A8C426FD02EDC6649A4EB9B
:100B900001008C4277D016DC6449A4EB01008C4242
:100BA0005FD009DC624820184FD0B0F5803F50D0AC
:100BB000B0F1011F6FD150E0012858D002285AD05F
:100BC0000328F7D15BE05B4A811A90426CD007DCC6
:100BD00001285CD002285FD0B0F5803FEAD15FE009
:100BE000012965D00229E5D166E0534A811A904275
:100BF00067D018DC514AA0EB0201904262D009DCB8
:100C00004F4940185FD0A0F5803010385CD00228E2
:100C1000D0D199E14A484538081856D01F2855D0F8
:100C20002028C7D1A1E1474A881A91424FD007DC5A
:100C300004294DD0444808184BD02028BAD1A4E14B
:100C4000012847D00228B5D1ADE140A003F01EFE37
:100C5000B1E145A003F01AFEADE149A003F016FE94
:100C6000A9E155A003F012FEA5E129E00BE05CA08C
:100C700003F00CFE9FE165A003F008FE9BE16AA073
:100C800003F004FE97E16CA003F000FE93E173A073
:100C900003F0FCFD8FE18AE17AA003F0F7FD8AE121
:100CA00082A003F0F3FD86E18CA003F0EFFD82E16A
:100CB000934803F0EBFD7EE192A003F0E7FD7AE1BB
:100CC00036E156E145E137E13AE146E149E160E1EB
:100CD00053E156E162E100000A25733A20494420BD
:100CE00025782C6C656E6774682025782C64617497
:100CF00020000000257820000A000000B800002035
:100D00006465766963652025642C6E6F64652025B3
:100D1000640A00006800002078000020C80000205D
:100D200058020020470004060000010602000405E6
:100D30000000FDFA41000300EBFF0400CCFF0200BD
:100D40004700FEFFEFFFF601320009FE546F6767B0
:100D50006C6520626974206E6F7420616C746572BA
:100D60006E617465640A000053444F2070726F74A2
:100D70006F636F6C2074696D6564206F75740A0011
:100D8000436C69656E742F53657276657220636F6C
:100D90006D6D616E6420737065636966696572204C
:100DA0006E6F742076616C6964206F7220756E6B53
:100DB0006E6F776E0A000000496E76616C69642080
:100DC000626C6F636B2073697A6528626C6F636B0A
:100DD000206D6F6465206F6E6C79290A0000000039
:100DE000496E76616C69642073657175656E6365C3
:100DF000206E756D6265722862616C6F636B206D29
:100E00006F6465206F6E6C79290A0000435243209D
:100E10004572726F7228626C6F636B206D6F6465D0
:100E2000206F6E6C79290A004F7574206F66204D13
:100E3000656D6F72790A0000556E737570706F7210
:100E40007465642061636365737320746F20616EE1
:100E5000206F626A6563740A000000004174746563
:100E60006D707420746F20726561642061207772E8
:100E7000697465206F6E6C79206F626A6563740AAD
:100E800000000000417474656D707420746F2077E9
:100E90007269746520612072656164206F6E6C797F
:100EA000206F626A6563740A000000004F626A6521
:100EB000637420646F6573206E6F74206578697346
:100EC0007420696E20746865206F626A656374209F
:100ED00064696374696F6E6172790A004F626A6552
:100EE00063742063616E6E6F74206265206D617043
:100EF00070656420746F207468652050444F0A0048
:100F00008454000847656E6572616C20706172617F
:100F10006D6574657220696E636F6D70617469626E
:100F2000696C69747920726561736F6E0A000000E4
:100F3000A9A003F0ABFC3EE0B3A003F0A7FC3AE0AD
:100F4000BB4803F0A3FC36E0B948483003F09EFCF0
:100F500031E0B8A003F09AFC2DE0C6A003F096FCA7
:100F600029E0CBA003F092FC25E0D8A003F08EFC92
:100F700021E0E0A003F08AFC1DE0E7A003F086FC7E
:100F800019E0F0A003F082FC15E0F2A003F07EFC73
:100F900011E0A7488C3003F079FC0CE0A448DC3069
:100FA00003F074FC07E0F94803F070FC03E0F8A0DC
:100FB00003F06CFC00BF00BF10BD0FB42DE9F0437F
:100FC00085B080460D46DDF84890002400260027B5
:100FD00005F5C060019000208DF8080008208DF80C
:100FE00011009DF84400401E2F21A1EB8000C0B2EB
:100FF0008DF809000E98C1B28DF80A100E98010AFA
:101000008DF80B100F98C1B28DF80C109DF84400AC
:10101000042805DD012005B0BDE8F0035DF814FBF0
:10102000002410E09DF84400A04205DD10A8025DF8
:101030003738211D425404E000220DF10900211D22
:101040004254601CC4B2042CECDB0498009040466F
:1010500001A90EC9FFF74AFC40E0D748807B012870
:1010600034D1D548016805F5B06081422ED1D2480F
:1010700081799DF80A00814228D1CF48C1799DF835
:101080000B00814222D1CC48017A9DF80C008142AC
:101090001CD10020C849887308464079602801D1D6
:1010A0000020B8E7C448D0F80970C4A003F0EEFBF4
:1010B0003B46C8A0DDE90E1203F0E8FB3846FFF717
:1010C0005EFD72A003F0E2FB0120A4E74FF47A700A
:1010D00001F001F9761C4E4500D300E0BDE700BFEA
:1010E000012098E72DE9F04786B082460E46144667
:1010F0001F460025A846A94606F5C06002900020BC
:101100008DF80C0008208DF8150040208DF80D009A
:1011100021788DF80E102088010A8DF80F102179A2
:101120008DF8101000BF06E000220DF10D00291D02
:101130004254681CC5B2042DF6DB05980090504659
:1011400002A90EC9FFF7D2FB73E19B48807B0128FF
:1011500040D19948016806F5B06081423AD196487D
:1011600081799DF80E00814234D19348C1799DF870
:101170000F0081422ED19048017A9DF810008142E3
:1011800028D100208C49887308464079802822D0D5
:101190004979C1F14F00C11700EB91718910491CC9
:1011A0002173207B042805DD00202073012006B078
:1011B000BDE8F087002508E07F48401D291D415CFF
:1011C00004F108004155681CC5B2207BA842F3DC3D
:1011D0000020ECE724E10DE147656E6572616C204B
:1011E000696E7465726E616C20696E636F6D70619B
:1011F000746962696C69747920696E20746865200D
:101200006465766963650A0041636365737320668C
:1012100061696C65642064756520746F2068617213
:101220006477617265206572726F720A0000000057
:10123000D054000844617461206C656E6774682046
:10124000646F6573206E6F74206D617463682C6CBD
:10125000656E677468206F66207365727669636572
:1012600020706172616D6574657220746F6F206C9F
:101270006F770A005375622D696E64657820646F1C
:101280006573206E6F742065786973740A000000BE
:1012900056616C75652072616E6765206F6620709F
:1012A0006172616D657465722065786365656465FA
:1012B00064286F6E6C7920666F722077726974652E
:1012C00020616363657373290A00000056616C75C1
:1012D00065206F6620706172616D6574657220773C
:1012E00072697474656E20746F6F20686967680A2C
:1012F0000000000056616C7565206F662070617299
:10130000616D65746572207772697474656E20749E
:101310006F6F206C6F770A004D6178696D756D2075
:1013200076616C7565206973206C657373207468D1
:10133000616E206D696E6D756D2076616C75650AE4
:101340000000000047656E6572616C206572726F07
:10135000720A0000446174612063616E206E6F74D4
:10136000207472616E73666572726564206F72209C
:1013700073746F72656420746F2074686520617087
:10138000706C69636174696F6E0A0000085600082A
:101390004D6179206265204920646F6573206E6F0E
:1013A00074206B6E6F772074686973206572726F3A
:1013B00072205E5F5E0A0000680000200A53444FFE
:1013C0002053454E442044415441204552524F52EF
:1013D0000A000000494E4445582030782578257889
:1013E0002C4552524F5220434F44452030782578A7
:1013F0000A000000FE48D0F80990FEA003F046FA6B
:101400004B46AFF23000D4E9001203F03FFA4846F1
:10141000FFF7B5FBAFF28C1003F038FA0120C6E6F7
:101420004FF47A7000F057FF08F10108B84500D377
:1014300000E08AE600BF0120B9E6F0B587B00746B4
:101440000D461446002604F47F40B0F5C05F07D176
:10145000A4F5C0504FF4C07101EB002046190CE018
:101460004FF6F0702040B0F5A05F06D1A4F5A05073
:101470004FF4007101EB0020461903940120049001
:1014800004208DF81800F0B28DF81400310A8DF8A0
:10149000151000218DF8161080218DF8171064208A
:1014A0000290DDE90501CDE9000129463846DDE974
:1014B0000323FFF782FD002007B0F0BD0FB42DE934
:1014C000F04387B08146884600240026002700BFED
:1014D00005E012A810F824003844C7B2641C9DF837
:1014E0006800A042F5DC402F05DD012007B0BDE813
:1014F000F0035DF814FB109800F47F40B0F5C05F76
:1015000009D11098A0F5C0504FF4C07101EB002034
:1015100000EB080542E04FF6F07110980840B0F576
:10152000A05F39D11098A0F5A0504FF4007101EBE5
:10153000002000EB0805002406E0B34850F8240022
:10154000404500D102E0641C042CF6DB00BF10987B
:10155000A0F5A056042E01DC002E04DAABA003F0A7
:1015600095F90120C2E7AE4800EB861000EB0410AD
:1015700005600020AA4901EB861101EB04110871F6
:101580003846F91707EB5171C910A54A02EB8612CC
:1015900002EB0412517301E00120A7E710980390B9
:1015A0000120049004208DF81800E8B28DF8140092
:1015B000290A8DF8151000218DF8161080218DF85C
:1015C000171064200290DDE90501CDE900014146D4
:1015D0004846DDE90323FFF7F0FC109800F50070A2
:1015E00003900020049001208DF8180000208DF851
:1015F000140000218DF815108DF816108DF81710B5
:1016000064200290DDE90501CDE90001414648462C
:10161000DDE90323FFF7D1FC109800F5007003907B
:1016200004208DF81800002412E0601C049012A819
:1016300050F82400059064200290DDE90501CDE911
:10164000000141464846DDE90323FFF7B6FC641C70
:101650009DF86800A042E8DC1098039002200490F6
:1016600001208DF818001198C0B28DF814000021E7
:101670008DF815108DF816108DF817106420029053
:10168000DDE90501CDE9000141464846DDE90323D6
:10169000FFF793FC109800F5007003900020049071
:1016A00001208DF818009DF868008DF814000021C5
:1016B0008DF815108DF816108DF817106420029013
:1016C000DDE90501CDE9000141464846DDE9032396
:1016D000FFF773FC109803900120049004208DF80C
:1016E0001800E8B28DF81400290A8DF815100021B1
:1016F0008DF816108DF8171064200290DDE90501B1
:10170000CDE9000141464846DDE90323FFF755FCDA
:101710000020EBE6014611F04F0F01D10120704788
:1017200001F04F00402801D10220F8E701F06F00DE
:10173000212801D10320F2E701F06F00232801D115
:101740000420ECE701F06F00272801D10520E6E72F
:1017500001F06F00072801D10620E0E701F04F00FB
:101760000F2801D10720DAE701F04F00082800D147
:10177000D5E70020D3E72DE9F84380460E4615460D
:101780001F46DDF82090002400BF06E01E4850F8F8
:101790002400B04200D102E0641C042CF6D300BF48
:1017A000A5F5A050042805D91EA003F06FF801206C
:1017B000BDE8F883A5F5A051194A02EB811101EBB0
:1017C0000411481D4A46394603F05CF9A5F5A050BE
:1017D000134901EB801000EB0410C0680090A5F5E0
:1017E000A05001EB801000EB041C40462CE00000F0
:1017F000680000200A53444F205245515545535428
:10180000204552524F520A00B80000200A617272FD
:101810006179206F76657220666C6F770A00000030
:10182000580100200A50646F206F626A656374205B
:101830006572726F722C6172726179206F76657257
:1018400020666C6F770A00009CE80E00FFF74EF8E8
:101850000020ADE72DE9F0418AB0074688461446DE
:101860001D460026FC4B0FCBCDE90823CDE9060130
:10187000E0B28DF82000210A06A841724FF47A7078
:101880000290DDE90801CDE9000141463846DDE975
:101890000623FFF792FB18B101200AB0BDE8F081E2
:1018A00022E046F241000290002003904FF47A7348
:1018B00002AA41463846FFF715FC50B9049801903A
:1018C000BDF8041088B2FFF725FFA84201D100201F
:1018D000E3E742F2107000F0FEFC761CB6F57A7F6A
:1018E00001DD0120D9E700BFDBE770B58CB005460C
:1018F0000E46D948103090E80E00C06808AC0EC4FF
:101900000B90D54B2033D3E90020D3E9021305AC6B
:101910000BC40492002440E04FF47A7308AA3146C5
:101920002846FFF7DFFB002832D10A980390BDF864
:101930000C1088B2FFF7EEFE082828D1C82C05D974
:10194000C6A002F0A3FF01200CB070BD00208DF8EE
:1019500018004FF47A700290DDE90601CDE900012C
:1019600031462846DDE90423FFF727FB80208DF868
:1019700018004FF47A700290DDE90601CDE900010C
:1019800031462846DDE90423FFF717FB00E005E0B8
:1019900042F2107000F09FFC641CBDE700BF002005
:1019A000D2E72DE9F84304460D4616461F464FF090
:1019B0000008C1460020009048E04FF0000908E010
:1019C0000020FFF7C5F84FF47A7000F084FC09F1AD
:1019D0000109B145F4DB2CE0642000F07CFC05EB50
:1019E000C500A44901EB800004EBC4010844007A5F
:1019F00001281ED105EBC5009E4901EB800004EBD8
:101A0000C401084400880090002005EBC501994AF4
:101A100002EB810104EBC40211440872BDF800100E
:101A200088B2FFF777FEB84202D10020BDE8F88304
:101A300000E0D1E700BF4FF47A7000F04CFC08F1F1
:101A40000108B8F57A7F01DD0120EFE7B5E710B5B1
:101A5000044600212046FFF74EF84FF47A7000F05C
:101A60005DFC4FF47A7000F059FC4FF47A7000F08E
:101A700055FC4FF47A7000F051FC00212046FFF72E
:101A800043F84FF47A7000F049FC00212046FFF73C
:101A900044F84FF47A7000F041FC10BD70B588B086
:101AA00005460E4614466C4B30330FCBCDE906236A
:101AB000CDE90401E0B28DF81800210A8DF8191063
:101AC0004FF47A700290DDE90601CDE9000131465C
:101AD0002846DDE90423FFF770FAC0B208B070BDF4
:101AE00070B588B005460E4614465B4B40330FCBAD
:101AF000CDE90623CDE90401E0B28DF81800210AF2
:101B00008DF8191040218DF81A1000218DF81B1046
:101B10004FF47A700290DDE90601CDE9000131460B
:101B20002846DDE90423FFF748FAC0B208B070BDCB
:101B300010B586B004464FF4E860029000208DF89E
:101B40000C0001208DF8150005208DF80D0005987A
:101B50000090204602A90EC9FEF7C8FE06B010BDCF
:101B600070B588B005460E4614463B4B50330FCB3C
:101B7000CDE90623CDE904018DF818404FF47A70C1
:101B80000290DDE90601CDE9000131462846DDE994
:101B90000423FFF712FAC0B208B070BD70B588B068
:101BA00005460E4614462C4B60330FCBCDE9062379
:101BB000CDE9040106944FF47A700290DDE9060144
:101BC000CDE9000131462846DDE90423FFF7F5F9A8
:101BD00010B1012008B070BD0020FBE770B588B0DF
:101BE00005460E4614461C4B70330FCBCDE9062339
:101BF000CDE9040106944FF47A700290DDE9060104
:101C0000CDE9000131462846DDE90423FFF7D5F987
:101C100010B1012008B070BD0020FBE770B588B09E
:101C200005460E4614460C4B80330FCBCDE90623F8
:101C3000CDE9040106944FF47A700290DDE90601C3
:101C4000CDE9000131462846DDE90423FFF7B5F967
:101C500090B1012008B070BD245300080A66617578
:101C60006C74207265736574206572726F722121C5
:101C7000210A0000C80000200020EBE770B588B002
:101C800005460E461446D14B0FCBCDE90623CDE9D0
:101C9000040106944FF47A700290DDE90601CDE963
:101CA000000131462846DDE90423FFF786F910B12B
:101CB000012008B070BD0020FBE770B588B0054674
:101CC0000E461446C14B10330FCBCDE90623CDE9A8
:101CD000040106944FF47A700290DDE90601CDE923
:101CE000000131462846DDE90423FFF766F910B10B
:101CF000012008B070BD0020FBE770B588B0054634
:101D00000E461446B14B20330FCBCDE90623CDE967
:101D1000040106944FF47A700290DDE90601CDE9E2
:101D2000000131462846DDE90423FFF746F910B1EA
:101D3000012008B070BD0020FBE770B588B00546F3
:101D40000E461446A14B30330FCBCDE90623CDE927
:101D5000040106944FF47A700290DDE90601CDE9A2
:101D6000000131462846DDE90423FFF726F910B1CA
:101D7000012008B070BD0020FBE770B588B00546B3
:101D80000E461446914B40330FCBCDE90623CDE9E7
:101D9000040106944FF47A700290DDE90601CDE962
:101DA000000131462846DDE90423FFF706F910B1AA
:101DB000012008B070BD0020FBE770B588B0054673
:101DC0000E461446814B50330FCBCDE90623CDE9A7
:101DD000040106944FF47A700290DDE90601CDE922
:101DE000000131462846DDE90423FFF7E6F810B18B
:101DF000012008B070BD0020FBE770B588B0054633
:101E00000E461446714B60330FCBCDE90623CDE966
:101E1000040106944FF47A700290DDE90601CDE9E1
:101E2000000131462846DDE90423FFF7C6F810B16A
:101E3000012008B070BD0020FBE770B588B00546F2
:101E40000E461446614B70330FCBCDE90623CDE926
:101E5000040106944FF47A700290DDE90601CDE9A1
:101E6000000131462846DDE90423FFF7A6F810B14A
:101E7000012008B070BD0020FBE770B588B00546B2
:101E80000E461446514B80330FCBCDE90623CDE9E6
:101E9000040106944FF47A700290DDE90601CDE961
:101EA000000131462846DDE90423FFF786F810B12A
:101EB000012008B070BD0020FBE737B588B00446AC
:101EC0000D46424B90330FCBCDE90623CDE90401FB
:101ED000BDF82800ADF818004FF47A700290DDE9E3
:101EE0000601CDE9000129462046DDE90423FFF77C
:101EF00064F810B101200BB030BD0020FBE737B50E
:101F000088B004460D46314BA0330FCBCDE90623F4
:101F1000CDE90401BDF82800ADF818004FF47A703F
:101F20000290DDE90601CDE9000129462046DDE900
:101F30000423FFF742F810B101200BB030BD0020A0
:101F4000FBE737B588B004460D46204BB0330FCBC6
:101F5000CDE90623CDE90401BDF82800ADF818004D
:101F60004FF47A700290DDE90601CDE900012946BF
:101F70002046DDE90423FFF720F810B101200BB063
:101F800030BD0020FBE737B588B004460D460F4B47
:101F9000C0330FCBCDE90623CDE90401BDF82800FD
:101FA000ADF818004FF47A700290DDE90601CDE932
:101FB000000129462046DDE90423FEF7FEFF10B1AB
:101FC00001200BB030BD0020FBE70000B453000837
:101FD00008B50121482000F0EBFD2020ADF80000FD
:101FE00010208DF8030003208DF80200694609488F
:101FF00000F028FB2021074800F0CFFB2020ADF89F
:1020000000006946044800F01DFB2021024800F052
:10201000C4FB08BD000C0140001801402DE9F0414F
:102020008AB004460D4616461F46DDF84080012161
:10203000042000F0BDFD0121480600F0C6FD4FF46C
:102040008050ADF8240003208DF8260018208DF86C
:10205000270009A9914800F0F5FA4FF40060ADF8A7
:10206000240048208DF8270009A98C4800F0EAFADE
:1020700000208DF81E008DF81F008DF82000012033
:102080008DF8210000208DF822008DF823008DF8B6
:102090001A808DF81B408DF81C608DF81D50ADF82E
:1020A000187006A97E4800F004FE00208DF812008A
:1020B0008DF8130001208DF814000020ADF8080001
:1020C000ADF80A00ADF80C00ADF80E00ADF8100048
:1020D00001208DF8150002A800F075FE01220221F2
:1020E0006F4801F06EF914208DF8040001208DF87E
:1020F000050000208DF8060001208DF8070001A8DA
:1021000000F0D7F900200AB0BDE8F0813FB585B0F6
:10211000002405980090002001908DF808009DF89B
:10212000180018B900208DF8090002E002208DF88F
:1021300009009DF821008DF80A00002406E00DF149
:102140001900015D0E380155601C84B29DF8210014
:10215000A042F4DC6946524800F024FF0546002402
:1021600001E0601C84B229464D4800F0B3FF18B965
:1021700040F6FF708442F4DB40F6FF70844202DBDD
:10218000012009B030BD0020FBE730B585B0054621
:102190000021434801F07DF810B9002005B030BDA2
:1021A0006A4600213E4800F0F1FF009828609DF843
:1021B0000A006873002406E00DF10B00015D681D44
:1021C0000155601CC4B29DF80A00A042F4DC012055
:1021D000E4E72DE9F84381468846B9F1FA0F25D0A6
:1021E0000CDCB9F10A0F35D0B9F1140F2DD0B9F1CB
:1021F000320F25D0B9F17D0F31D11CE0B9F5FA7F4E
:102200000FD0B9F5487F07D0B9F57A7F27D10024E0
:1022100007250826022725E0002403250326052795
:1022200020E000240725082604271BE000240725BA
:102230000826082716E0002407250826102711E0A5
:1022400000240725082628270CE000240725082657
:10225000642707E0002407250826C82702E001209C
:10226000BDE8F88300BF3B46324629462046CDF8FC
:102270000080FFF7D3FE08B10220F1E70020EFE76E
:1022800000B585B001A8FFF780FF049800900020FA
:1022900001A90EC9FEF76CFB05B000BD00080140A6
:1022A0000064004010B56FF0040000F04DF92D48B7
:1022B00000682D49B0FBF1F02C4908700846007801
:1022C00000EB4001C1EBC0104FF6FF7101EAC00006
:1022D0002749088010BD0146244A12784A434FF02E
:1022E000E0235A6100229A611A46126942F0010203
:1022F0001A6100BF4FF0E022106910F0010F02D008
:1023000010F4803FF6D04FF0E022126922F0010273
:102310004FF0E0231A6100229A6170470146144A87
:1023200012884A434FF0E0235A6100229A611A460C
:10233000126942F001021A6100BF4FF0E0221069F9
:1023400010F0010F02D010F4803FF6D04FF0E022E1
:10235000126922F001024FF0E0231A6100229A6113
:10236000704700000800002000127A001C000020C6
:102370001E00002010B54FF4A06000F095F810BDCD
:10238000014600BF704700BF334A128812F0400F69
:10239000FAD0C2B2304B1B1D1A80704710B586B000
:1023A0000446012144F2040000F002FC2A4801F036
:1023B0005BF94FF40070ADF8140003208DF816009F
:1023C00018208DF8170005A9244800F03BF94FF4B8
:1023D0008060ADF8140004208DF8170005A91F488F
:1023E00000F030F925208DF8000003208DF8010061
:1023F0008DF8020001208DF80300684600F059F8BE
:1024000001940020ADF80800ADF80A00ADF80C000A
:10241000ADF810000C20ADF80E0001A90E4801F037
:1024200066F9012240F225510B4801F0F8F901212B
:10243000094801F0E8F906B010BD10B540F2255189
:10244000054801F0D1FA30B1034801F04DFA0449D2
:10245000044A1268885410BD003801400008014049
:1024600078020020240000200948804709480047DE
:10247000FEE7FEE7FEE7FEE7FEE7FEE7FEE7FEE734
:10248000FEE7FEE704480549054A064B7047000091
:10249000ED07000831010008A0030020A00900207A
:1024A000A0050020A005002031490143314A1160F8
:1024B000704770B5002100230F22C4780CB32D4C57
:1024C000246804F4E064C4F5E064210AC1F1040363
:1024D000CA40447804FA03F1847814402143090186
:1024E000254C0678A155047804F01F050124AC4062
:1024F00005786D114FF0E02606EB8505C5F8004123
:1025000009E0047804F01F050124AC401B4D067857
:10251000761145F8264070BD194A0A400243154B12
:102520001B1F1A60704739B1124A121D126802430C
:10253000104B1B1D1A6006E00E4A121D12688243E2
:102540000C4B1B1D1A607047042808D14FF0E02186
:10255000096941F004014FF0E022116107E04FF0FA
:10256000E021096921F004014FF0E0221161704778
:102570000000FA050CED00E000E400E080E100E07E
:1025800080FFFF1F10B50446CA48844208D10121CC
:10259000042000F027FB0021042000F023FB46E08C
:1025A000C548844208D10121082000F01BFB00210E
:1025B000082000F017FB3AE0C048844208D101210E
:1025C000102000F00FFB0021102000F00BFB2EE08C
:1025D000BB48844208D10121202000F003FB0021E8
:1025E000202000F0FFFA22E0B648844208D1012101
:1025F000402000F0F7FA0021402000F0F3FA16E046
:10260000B148844208D10121802000F0EBFA00217A
:10261000802000F0E7FA0AE0AC48844207D10121AB
:10262000801500F0DFFA0021A01500F0DBFA10BDE4
:1026300010B50121084600F0D5FA0021012000F074
:10264000D1FA10BD2DE9F0410246002500260020F8
:1026500000230024002791F803C00CF00F0591F827
:1026600003C01CF0100F03D091F802C04CEA05051E
:1026700091F800C0BCF1000F31D0146800202BE0AD
:102680004FF0010C0CFA00F3B1F800C00CEA03069D
:102690009E4220D183004FF00F0C0CFA03F7BC438D
:1026A00005FA03FC4CEA040491F803C0BCF1280FBE
:1026B00006D14FF0010C0CFA00FCC2F814C00AE07D
:1026C00091F803C0BCF1480F05D14FF0010C0CFA92
:1026D00000FCC2F810C0401C0828D1D31460B1F827
:1026E00000C0BCF1FF0F34DD546800202EE000F183
:1026F000080C4FF0010808FA0CF3B1F800C00CEA1E
:1027000003069E4221D183004FF00F0C0CFA03F711
:10271000BC4305FA03FC4CEA040491F803C0BCF185
:10272000280F05D100F1080C08FA0CF8C2F8148043
:1027300091F803C0BCF1480F07D100F1080C4FF02D
:10274000010808FA0CF8C2F81080401C0828CED303
:102750005460BDE8F0814FF6FF7101800221817065
:102760000421C17070470246002093680B4201D0DB
:10277000012000E0002070470146886880B2704761
:1027800002460020D3680B4201D0012000E0002067
:1027900070470146C86880B2704701617047416167
:1027A00070470AB1016100E041617047C160704744
:1027B0004FF480320A438261816182618269826959
:1027C000704702460020424B18684FF6807318404D
:1027D00040EA021008433E4B186070473D49C8610B
:1027E0007047F0B50A46002300240021002500F0C0
:1027F0000046B6F1004F02D1354EF16901E0344E8A
:102800007168C0F3034583B200F44016B6F5401F6B
:1028100008D121F070612E4E766826F070662C4F3C
:102820007E6012E000F48016B6F5801F06D1032604
:1028300006FA05F4A14341F0706106E0460D360149
:1028400003FA06F6B14341F0706122B1460D36013C
:1028500003FA06F6314300F00046B6F1004F02D10C
:102860001B4EF16101E01A4E7160F0BD30B50022DF
:102870008B071C0F0F2303FA04F2154B08338C103F
:1028800053F824309343124C08348D1044F825300B
:1028900023468C1053F824308C07240F00FA04F4DC
:1028A00023430B4C08348D1044F8253030BD0A49C1
:1028B0000860704700080140000C01400010014012
:1028C0000014014000180140001C0140002001409C
:1028D0000000014000002042DC002042DD4800688A
:1028E00040F00100DB49086008464068DA490840CA
:1028F000D849486008460068D8490840D54908606A
:102900000846006820F4802008600846406820F4EB
:10291000FE0048604FF41F0088607047CD49096889
:1029200021F48031CB4A11601146096821F48021DD
:102930001160B0F5803F03D0B0F5802F0ED106E0D6
:10294000C449096841F48031C24A116007E0C149B5
:10295000096841F4A021BF4A116000E000BF00BF38
:10296000704710B501460022002300204A11012AB9
:1029700002D1B84C236806E0022A02D1B54C236A82
:1029800001E0B44C636A01F01F02012494401C4230
:1029900001D0012000E0002010BD38B500200090DB
:1029A0000024002500BF3120FFF7DBFF054600981B
:1029B000401C00900098B0F5A06F01D0002DF2D01F
:1029C0003120FFF7CEFF08B1012400E000242046AB
:1029D00038BD014600209F4A106820F0F80040EA08
:1029E000C100106070479E49086070470246002091
:1029F000984B586820F47C1042EA01031843954B29
:102A00005860704796490866704701460020914A11
:102A1000506820F003000843506070478D484068BC
:102A200000F00C007047014600208A4A506820F0F0
:102A3000F00008435060704701460020854A506806
:102A400020F4E06008435060704701460020814A4E
:102A5000506820F4605040EAC1005060704729B1CE
:102A60007C4A527A02437B4B5A7204E0794A527A8A
:102A70008243784B5A7270477A4908607047014622
:102A80000020744A506820F440400843506070476A
:102A90000021754A11706F4A82F82010012802D077
:102AA000042808D103E001216F4A117004E00521D8
:102AB0006D4A117000E000BF00BF70476B490860AD
:102AC00070476449096A0143624A11627047674965
:102AD00044390860704730B50021002200240023EB
:102AE0005C4D6D6805F00C0121B1042905D0082961
:102AF00023D105E05E4D056022E05D4D05601FE0DD
:102B0000544D6D6805F47012524D6D6805F48034B3
:102B1000022505EB92421CB9564D554305600BE06A
:102B20004C4D6D6815F4003F03D0524D5543056080
:102B300002E04F4D5543056002E04D4D056000BF7A
:102B400000BF444D6D6805F0F00109094A4D6B5C0A
:102B50000568DD4045603F4D6D6805F4E061090A98
:102B6000454D6B5C4568DD4085603A4D6D6805F408
:102B70006051C90A404D6B5C4568DD40C560354D0C
:102B80006D6805F44041890B3C4D6B5CC568B5FB35
:102B9000F3F5056130BD29B12E4A526902432D4B30
:102BA0005A6104E02B4A526982432A4B5A617047AA
:102BB00029B1284A92690243264B9A6104E0254ACA
:102BC00092698243234B9A61704729B1214AD269A5
:102BD0000243204BDA6104E01E4AD26982431D4B56
:102BE000DA61704729B11B4AD2680243194BDA6097
:102BF00004E0184AD2688243164BDA60704729B164
:102C0000144A12690243134B1A6104E0114A126913
:102C10008243104B1A61704714494039086070476D
:102C20000F49C86470470B49C87170470948406A2A
:102C300040F0807007494862704701460020054A0D
:102C400092680A4201D0012000E00020704701494B
:102C500088727047001002400000FFF8FFFFF6FE88
:102C600000004242D800424220100240800442420A
:102C700000127A0000093D002C0000203C000020DA
:102C800010B50446FE48844209D101214806FFF7E9
:102C9000B6FF00214FF00070FFF7B1FF08E00121FF
:102CA0008806FFF7ACFF00214FF08060FFF7A7FF19
:102CB00010BD30B5024600200023146824F0020441
:102CC0001460146844F00104146000E05B1C546854
:102CD00014F0010F03D1A3F57F44FF3CF6D15468F3
:102CE00014F0010F01D100206CE08C79012C04D18B
:102CF000146844F08004146003E0146824F0800435
:102D00001460CC79012C04D1146844F040041460A0
:102D100003E0146824F0400414600C7A012C04D100
:102D2000146844F02004146003E0146824F02004C4
:102D300014604C7A012C04D1146844F0100414601F
:102D400003E0146824F0100414608C7A012C04D180
:102D5000146844F00804146003E0146824F00804C4
:102D60001460CC7A012C04D1146844F0040414607B
:102D700003E0146824F0040414608C78A407CD7870
:102D800044EA05640D7944EA05444D7944EA055462
:102D90000D886D1E2C43D461146824F00104146066
:102DA000002300E05B1C546814F0010F03D0A3F56E
:102DB0007F44FF3CF6D1546814F0010F01D000208D
:102DC00000E0012030BD10B50021837A012202FA13
:102DD00003F1AC4A126842F00102AA4B1A60A94AF8
:102DE0001C3212688A43A74B1C331A60027BCAB993
:102DF000A44A0C3212688A43A24B0C331A604288F0
:102E0000C38842EA03439F4A4032847A42F834300E
:102E10000288838842EA03439A4A4032847A02EB6A
:102E2000C4025360027B012A19D1964A0C321268FF
:102E30000A43944B0C331A604288038842EA0343E6
:102E4000904A4032847A42F83430C288838842EA19
:102E500003438C4A4032847A02EBC4025360C27A44
:102E60003AB9884A121D12688A43864B1B1D1A60A4
:102E700006E0844A121D12680A43824B1B1D1A6029
:102E8000028932B97F4A143212688A437D4B143367
:102E90001A600289012A06D17A4A143212680A435A
:102EA000784B14331A60427B012A06D1754A1C32D2
:102EB00012680A43734B1C331A60724A126822F07C
:102EC0000102704B1A6010BD00218171C171017245
:102ED00041728172C1728170C1700321017102213E
:102EE00041710121018070476649096841F0010183
:102EF000644A11601146096843F60E729143614AB3
:102F000011601146096841EA002111601146096803
:102F100021F001011160704721B1026842F4803252
:102F2000026003E0026822F4803202607047E1B17F
:102F3000026842F0800202604FF4C272125842F4FA
:102F400080734FF4C27213504FF4CA72125842F495
:102F500080734FF4CA7213504FF4D272125842F475
:102F600080734FF4D27213501BE0026822F080028B
:102F700002604FF4C272125822F480734FF4C2728E
:102F800013504FF4CA72125822F480734FF4CA726D
:102F900013504FF4D272125822F480734FF4D2724D
:102FA0001350704710B502460020936803F0806309
:102FB000B3F1806F00D110E0936803F00063B3F1C8
:102FC000006F01D1012008E0936803F08053B3F152
:102FD000805F01D1022000E00420042879D002F5AE
:102FE000C07303EB00131B6803F0010402F5C07308
:102FF00003EB00131C600B7A7BB94B7A0C8843EA15
:10300000445302F5C07404EB00142468234302F512
:10301000C07404EB0014236010E00B7A4C6843EAA0
:10302000C4034C7A234302F5C07404EB00142468F3
:10303000234302F5C07404EB001423608B7A03F081
:103040000F038B7202F5C07303EB00135B6823F070
:103050000F0402F5C07303EB00135C6002F5C0734C
:1030600003EB00135B688C7A234302F5C07404EB16
:10307000001463608B7B1C064B7B44EA034403E033
:1030800000640040006600400B7B44EA0323CC7AD6
:10309000234302F5C07404EB0014A3608B7C1C0670
:1030A0004B7C44EA03440B7C44EA0323CC7B23435C
:1030B00002F5C07404EB0014E36002F5C07303EB87
:1030C00000131B6843F0010402F5C07303EB001307
:1030D0001C6010BD10B50246002021B1012907D0A7
:1030E00002290FD109E09368F74C03EA04000BE0D2
:1030F0009368F64C03EA040006E09368F44C03EA94
:10310000040001E0002000BF00BFF24C031BA042FE
:1031100016D007DC80B16FF08063C3180ED0022B8D
:1031200018D111E0B3F5007F10D0EB4C1B1909D07A
:10313000B3F5003F0ED10BE002200DE000200BE0C4
:10314000002009E0002007E0012005E0012003E065
:10315000012001E0002000BF00BF10BD21B1012906
:1031600007D002290FD109E0826842F08002826014
:103170000AE0826842F40042826005E0826842F41C
:103180000002826000E000BF00BF704710B500F58C
:10319000D87303EB01131B6803F004031372137A53
:1031A00053B900F5D87303EB01131B6840F2FF74A9
:1031B00004EA5353136009E000F5D87303EB0113DD
:1031C0001B686FF0604404EAD303536000F5D873C2
:1031D00003EB01131B6803F00203537200F5D8736D
:1031E00003EB01135B6803F00F03937200F5D873D0
:1031F00003EB01135B681B0AD37400F5D87303EB70
:1032000001139B68D37200F5D87303EB01139B681D
:103210001C0A147300F5D87303EB01139B681C0C94
:10322000547300F5D87303EB01139B681B0E937363
:1032300000F5D87303EB0113DB68D37300F5D87383
:1032400003EB0113DB681C0A147400F5D87303EB5D
:103250000113DB681C0C547400F5D87303EB0113E5
:10326000DB681B0E937421B9C36843F02003C3606D
:1032700003E0036943F02003036110BD21B9C26874
:1032800042F02002C26003E0026942F020020261C3
:1032900070470246002019B9D36803F0030006E026
:1032A000012903D1136903F0030000E000207047F7
:1032B00010B502460B4600204FF6FF71BBB91468EB
:1032C00024F0020444F00104146000E0491E546834
:1032D00004F00304012C01D00029F7D1546804F054
:1032E0000304012C01D0002032E0012030E0012B4A
:1032F00013D1146824F00304146000E0491E5468DC
:1033000014F0030F01D00029F8D1546814F0030F12
:1033100001D000201CE001201AE0022B17D1146814
:1033200024F0010444F00204146000E0491E5468D3
:1033300004F00304022C01D00029F7D1546804F0F2
:103340000304022C01D0002002E0012000E0002054
:1033500010BD014600200A6822F0010242F002027C
:103360000A604A6802F00302022A00D10120704775
:1033700001464FF6FF7200200B6823F002030B603A
:1033800000E0521E4B6803F00203022B01D1002A19
:10339000F7D14B6803F00203022B00D001207047E5
:1033A000014600208A6902F0700070470146002043
:1033B0008A69100E7047014600208A69C2F30740EF
:1033C00070471AB143690B43436102E043698B4381
:1033D0004361704710B50246002011F4700F08D009
:1033E0009369C1F31304234201D001202DE0002092
:1033F0002BE011F0807F08D05368C1F313042342FF
:1034000001D0012021E000201FE011F0006F08D062
:103410009368C1F31304234201D0012015E000207A
:1034200013E011F0007F08D0D368C1F313042342E6
:1034300001D0012009E0002007E01369C1F3130463
:10344000234201D0012000E0002010BD0022234BC8
:10345000994202D10023836111E0C1F3130211F0FC
:10346000007F01D0C2600AE011F0806F01D00261DC
:1034700005E011F0006F01D0826000E0426070470B
:10348000024600200A4201D0012000E000207047DF
:1034900070B504460D4600266069284271D0B5F526
:1034A000807F68D01CDC082D41D006DC012D2CD09B
:1034B000022D30D0042D7ED133E0102D3DD0202DB3
:1034C00041D0402D77D144E0030000040003000800
:1034D00000000310000100080001FFF77000F03049
:1034E000B5F5004F61D009DCB5F5007F4AD0B5F5E0
:1034F000806F4DD0B5F5006F5DD150E0B5F5803FE0
:103500002DD0B5F5003F56D12FE0A0685549FFF703
:10351000B7FF064651E0E0680321FFF7B1FF06461A
:103520004BE0E0680821FFF7ABFF064645E0E068A6
:103530001021FFF7A5FF06463FE020690321FFF7B2
:103540009FFF064639E020690821FFF799FF0646EC
:1035500033E020691021FFF793FF06462DE06068F5
:103560000821FFF78DFF064627E060681021FFF76E
:1035700087FF064621E0A0690121FFF781FF06468B
:103580001BE01BE0A0690221FFF77AFF064614E06A
:10359000A0690421FFF774FF06460EE00BE0A06966
:1035A0007021FFF76DFF064607E060680421FFF712
:1035B00067FF064601E0002600BF00E00026304617
:1035C00070BDB1F5007F3AD00FDC202928D006DC91
:1035D00001291CD004291DD0082940D11DE0402913
:1035E00021D0B1F5807F3AD126E0B1F5004F31D03E
:1035F00006DCB1F5806F25D0B1F5006F2FD124E046
:10360000B1F5803F12D0B1F5003F28D111E0154A45
:10361000826025E00822C26022E01022C2601FE022
:10362000082202611CE01022026119E008224260B7
:1036300016E01022426013E00422426010E00422EF
:1036400042600DE0042242600AE00022826104220E
:10365000426005E0002282610422426000E000BF77
:1036600000BF70470101010010B50446FB488442C9
:1036700009D101218803FFF7B5FA00214FF48040FA
:10368000FFF7B0FA32E0F648844209D1012148043C
:10369000FFF7B5FA00214FF40030FFF7B0FA25E04C
:1036A000F048844209D101218804FFF7A8FA0021DB
:1036B0004FF48020FFF7A3FA18E0EB48844209D1C9
:1036C0000121C804FFF79BFA00214FF40020FFF707
:1036D00096FA0BE0E548844208D101210805FFF77E
:1036E0008EFA00214FF48010FFF789FA10BD2DE902
:1036F000F04786B005460E460024A24600BFA1460C
:103700000027B08900B100BF2F462C8A4CF6FF700D
:103710000440F08804432C82AC894EF6F310044038
:10372000B08831890843718908430443AC81AC8A6D
:103730004FF6FF400440B0890443AC8201A8FFF774
:10374000CAF9C648874202D1DDF810A001E0DDF8D1
:103750000CA0A88910F4004F08D00AEBCA0000EBB7
:103760000A1031684900B0FBF1F807E00AEBCA0023
:1037700000EB0A1031688900B0FBF1F86420B8FB57
:10378000F0F004012009642101FB1089A88910F4DC
:10379000004F08D0322000EBC900B0FBF1F000F080
:1037A0000700044308E0322000EB09106421B0FB5D
:1037B000F1F000F00F0004432C8106B0BDE8F08763
:1037C0004FF41651016000218180C18001810C21DC
:1037D000418100218181704710B502460020108A86
:1037E0004FF2FF0318400B884C8823438C882343F7
:1037F000CC8823431843108210BD002101804180F2
:103800008180C180704721B1828942F40052828157
:1038100004E082894DF6FF731A4082817047F0B54B
:1038200003460024002600250020A1F510676A3F0A
:1038300000D100BF1846C1F3421401F01F06012752
:1038400007FA06F5012C01D10C3004E0022C01D15D
:10385000103000E014301AB107682F43076002E00F
:103860000768AF430760F0BD1AB1838A0B438382B8
:1038700002E0838A8B4383827047028A4FF6F0739B
:103880001A400282028A0A430282704782894FF2FA
:10389000FF731A40828182890A438281704721B175
:1038A000828942F00202828104E082894FF6FD7330
:1038B0001A4082817047028A4FF6DF731A400282F3
:1038C000028A0A430282704721B1028A42F480428E
:1038D000028204E0028A4BF6FF731A4002827047AC
:1038E000C1F308028280704701468888C0F308004F
:1038F0007047818941F0010181817047028BD2B20A
:103900000283028B42EA012202837047028B02F497
:103910007F420283028B0A430283704721B1828A6D
:1039200042F02002828204E0828A4FF6DF731A405E
:103930008282704721B1828A42F01002828204E0C2
:10394000828A4FF6EF731A408282704721B1828AD1
:1039500042F00802828204E0828A4FF6F7731A402E
:103960008282704721B1828942F40042828103E061
:103970008289C2F30E028281704721B1828A42F4A9
:103980000062828204E0828A4FF2FF731A408282D0
:103990007047828A4FF6FB731A408282828A0A43FA
:1039A0008282704721B1828A42F00202828204E060
:1039B000828A4FF6FD731A408282704702460020C9
:1039C000B1F5007F00D100BF13880B4201D0012068
:1039D00000E00020704701F40072B2F5007F00D1D2
:1039E00000BFCA430280704770B50246002400231E
:1039F00000250020A1F510666A3E00D100BFC1F38A
:103A0000421501F01F03012606FA03F3012D02D12E
:103A10009689334006E0022D02D1168A334001E038
:103A2000968A33400C12012606FA04F416883440B4
:103A300013B10CB1012000E0002070BD10B50022D0
:103A40000023A1F510646A3C00D100BF0A120124D2
:103A50009440A3B2DC43048010BD00000038014054
:103A60000044004000480040004C0040005000402E
:103A700010B50446FE48844208D10121C014FFF766
:103A8000B1F80021E014FFF7ADF8C4E0B4F1804FC5
:103A900008D101210846FFF7B2F800210120FFF705
:103AA000AEF8B8E0F348844208D101210220FFF7C4
:103AB000A6F800210220FFF7A2F8ACE0EE4884420D
:103AC00008D101210420FFF79AF800210420FFF714
:103AD00096F8A0E0E948844208D101210820FFF7C8
:103AE0008EF800210820FFF78AF894E0E448844229
:103AF00008D101211020FFF782F800211020FFF7E4
:103B00007EF888E0DF48844208D101212020FFF7B9
:103B100076F800212020FFF772F87CE0DA48844232
:103B200008D101214014FFF75DF800216014FFF770
:103B300059F870E0D548844209D10121C804FFF743
:103B400051F800214FF40020FFF74CF863E0D04813
:103B5000844209D101210805FFF744F800214FF400
:103B60008010FFF73FF856E0CA48844209D101218E
:103B70004805FFF737F800214FF40010FFF732F83F
:103B800049E0C548844208D101214020FFF737F8B9
:103B900000214020FFF733F83DE0C048844208D1BF
:103BA00001218020FFF72BF800218020FFF727F864
:103BB00031E0BB48844208D101218015FFF71FF88E
:103BC0000021A015FFF71BF825E0B648844209D173
:103BD00001210804FFF706F800214FF48030FFF7B9
:103BE00001F818E0B048844209D101214804FEF7E9
:103BF000F9FF00214FF40030FEF7F4FF0BE0AB4873
:103C0000844208D101218804FEF7ECFF00214FF423
:103C10008020FEF7E7FF10BD00220288944B9842F7
:103C20000ED0994B98420BD0B0F1804F08D0914BF9
:103C3000984205D0904B984202D0904B984204D1C4
:103C40004FF68F731A404B881A438D4B984207D01A
:103C50008C4B984204D04FF6FF431A40CB881A434E
:103C600002808B8883850B880385814B98420BD01B
:103C7000854B984208D08B4B984205D08A4B98428E
:103C800002D08A4B984201D10B7A038601238382AA
:103C9000704770B5002400220023058C4FF6FE7695
:103CA00035400584028C8388048B4FF68F752C4039
:103CB000B51E2C400D882C43751E2A400D892A43C1
:103CC0004D882A436A4DA8420BD06F4DA84208D0B8
:103CD000744DA84205D0744DA84202D0734DA8423D
:103CE00013D14FF6F7752A404D892A434FF6FB75DD
:103CF0002A408D882A434FF6FF652B404FF6FF552B
:103D00002B408D892B43CD892B4383800483CD8821
:103D10008586028470BD70B5002400220023058CC6
:103D20004FF6EF7635400584028C8388048B48F685
:103D3000FF752C404FF6FF452C400D884FF6FF765F
:103D400006EA05252C434FF6DF752A400D8906EA61
:103D500005152A434D8806EA05152A43444DA84215
:103D600002D0494DA8421DD14FF67F752A404D899A
:103D70004FF6FF7606EA05152A434FF6BF752A402F
:103D80008D8806EA05152A434FF6FF352B404FF282
:103D9000FF752B408D8906EA85052B43CD8906EA00
:103DA00085052B4383800483CD880587028470BDFD
:103DB00070B5002400220023058C4FF6FF663540C5
:103DC0000584028C8388848B4FF68F752C404FF6C8
:103DD000FC752C400D882C434FF6FF552A400D8969
:103DE0004FF6FF7606EA05252A434D8806EA0525A3
:103DF0002A431F4DA84202D0234DA8421DD14FF2A5
:103E0000FF752A404D894FF6FF7606EA05252A43BD
:103E10004FF6FF352A408D8806EA05252A434EF6DF
:103E2000FF752B404DF6FF752B408D8906EA051571
:103E30002B43CD8906EA05152B4383808483CD88E7
:103E40008587028470BD70B5002200230024058C94
:103E50004EF6FF7635400584038C8488828B48F6C5
:103E6000FF752A404FF6FF452A400D8820E00000EC
:103E7000002C01400004004000080040000C0040FD
:103E8000001000400014004000340140004C01408C
:103E9000005001400054014000180040001C004048
:103EA0000020004000400140004401400048014023
:103EB0004FF6FF7606EA05252A434DF6FF752B409F
:103EC0000D8906EA05352B434D8806EA05352B4357
:103ED000FA4DA84202D0FA4DA84208D14BF6FF7520
:103EE0002C408D894FF6FF7606EA85152C43848099
:103EF0008283CD88A0F84050038470BD828B4FF23E
:103F0000FF331A408283828B4FF6FF7303EA01234B
:103F10001A4382837047F0B50C46154600220021F3
:103F20000026078C4EF6FF7C07EA0C070784828B7D
:103F3000018C4FF6FF7707EA043640F6FF473A4018
:103F40004FF6FF7707EA05273A434FF6FF7707EA70
:103F500003373A43D94FB8420ED0D94FB8420BD0AD
:103F6000B0F1804F08D0D74FB84205D0D64FB842F5
:103F700002D0D64FB84206D14DF6FF77394046F40D
:103F80008057394305E047F6FF57394044F48057DE
:103F9000394382830184F0BD828B4FF6F3731A405C
:103FA0008283828B0A4382837047F0B50C461546A4
:103FB000002200210026078C4FF6FF6C07EA0C0751
:103FC0000784828B018C4FF6FF7707EA04264FF6B1
:103FD0000C773A404FF6FF7707EA03172F433A432F
:103FE000B64FB8420ED0B64FB8420BD0B0F1804FAA
:103FF00008D0B44FB84205D0B34FB84202D0B34F47
:10400000B84206D14FF6FF57394046F4807739431E
:1040100005E04FF2FF57394044F4807739438283FB
:104020000184F0BD028B4FF2FF331A400283028BF2
:104030004FF6FF7303EA01231A4302837047F0B57A
:104040000C461546002200210026078C4FF6EF7C17
:1040500007EA0C070784028B018C4FF6FF7707EA0B
:10406000041640F6FF473A404FF6FF7707EA03375A
:104070003A434FF6FF7707EA05273A438F4FB84296
:104080000ED08F4FB8420BD0B0F1804F08D08D4F7B
:10409000B84205D08C4FB84202D08C4FB84206D1FE
:1040A0004FF6DF77394046F01007394305E04FF609
:1040B0005F77394044F01007394302830184F0BD33
:1040C000028B4FF6F3731A400283028B0A4302837A
:1040D0007047F0B50C46154600220021068C4FF6BD
:1040E000FE773E400684028B018C4FF60C76324000
:1040F0007E1C06EA03162E433243704EB0420ED0A9
:104100006F4EB0420BD0B0F1804F08D06D4EB04230
:1041100005D06D4EB04202D06C4EB04206D14FF683
:10412000FD76314044F00106314305E04FF6F57667
:10413000314044F00106314302830184F0BD70B583
:1041400005460C465D4885420ED05D4885420BD041
:10415000B5F1804F08D05B48854205D05A4885426A
:1041600002D05A48854200D100E000BF208850B9F3
:104170002389A28861882846FFF7ABFFE18828469B
:10418000FFF79EFF25E0208804280AD12389A28812
:1041900061882846FFF753FFE1882846FFF742FF72
:1041A00017E0208808280AD12389A2886188284638
:1041B000FFF7FBFEE1882846FFF7EEFE09E02389C2
:1041C000A28861882846FFF7A6FEE1882846FFF707
:1041D00095FE70BD2DE9F04105460C4600260127ED
:1041E000608808B9022600E00026A088012801D1D5
:1041F000022700E001272088A0B92389A2886188CE
:104200002846FFF766FFE1882846FFF759FF238914
:104210003A4631462846FFF712FFE1882846FFF765
:1042200001FF13E02389A28861882846FFF707FF72
:10423000E1882846FFF7F6FE23893A4631462846AC
:10424000FFF747FFE1882846FFF73AFFBDE8F08116
:104250000A884B881A438B881A43CB881A430B89E8
:104260001A434B891A438B891A43A0F8442070479C
:104270004FF6FF71818000210180C1804180017271
:1042800070470021018041808180C180018141818E
:104290008181C1817047002101804180012181809D
:1042A0000021C1800181704700210180418081800F
:1042B000C18001814181818170470000002C014053
:1042C000003401400004004000080040000C0040A1
:1042D00021B1028842F00102028004E002884FF618
:1042E000FE731A400280704731B1B0F8442042F4A6
:1042F0000042A0F8442005E0B0F84420C2F30E02CA
:10430000A0F8442070471AB183890B43838102E0EF
:1043100083898B43838170478182704741EA02031E
:10432000A0F8483070471AB183890B43838102E0BB
:1043300083898B438381704701894FF6F87211405E
:10434000018170470A46002101894FF68F73194099
:1043500011430181704730B504460D462946204679
:10436000FFF7F0FF208940F00700208130BD2DE9E4
:10437000F04104460D4616461F46602D06D13B46C9
:10438000012231462046FFF75AFE05E03B46012256
:1043900031462046FFF79DFE29462046FFF7D2FF13
:1043A000208940F007002081BDE8F08130B50C463F
:1043B00000210189C9B24FF6FF7505EA03251543AF
:1043C00025432943018130BD2DE9F04105460E46C4
:1043D00017469846002443463A4631462846FFF79A
:1043E000E5FF2C894FF6F870044044F007044FF6BF
:1043F0008F70044044F070042C81BDE8F081F0B56A
:1044000004460D4616461F463B4632462946204680
:10441000FFF7CCFF208940F480402081F0BD01856A
:10442000828270470A46002101884FF68F73194037
:10443000114301807047F0B50C4615461E46002119
:10444000002200230189028B038C4FF6F877394054
:1044500021434FF6FC473A4040F201173A434FF6EA
:10446000DD773B404FF6FF7707EA06172F433B43C4
:10447000018102830384F0BD0A460021018B4FF6BF
:104480008F7319401143018370470A460021018B45
:1044900048F6FF7319404FF6FF7303EA02231943EE
:1044A000018370470A460021818B4FF68F731940B4
:1044B0001143818370470A460021818B48F6FF73C0
:1044C00019404FF6FF7303EA0223194381837047B3
:1044D00021B1028842F08002028004E002884FF697
:1044E0007F731A400280704721B1828842F0040233
:1044F000828004E082884FF6FB731A408280704706
:1045000021B1828842F00802828004E082884FF65E
:10451000F7731A408280704721B1828842F001020D
:10452000828004E082884FF6FE731A4082807047D2
:104530000A460021018B4FF6F7731940114301839E
:1045400070470A460021018B4FF2FF7319404FF666
:10455000FF7303EA02231943018370470A460021CF
:10456000818B4FF6F77319401143818370470A46D8
:104570000021818B4FF2FF7319404FF6FF7303EA5E
:1045800002231943818370470A460021018B4FF6AD
:10459000FB7319401143018370470A460021018BC8
:1045A0004FF6FF3319404FF6FF7303EA0223194316
:1045B000018370470A460021818B4FF6FB73194037
:1045C0001143818370470A460021818B4FF6FF33E8
:1045D00019404FF6FF7303EA0223194381837047A2
:1045E0000A460021018B4FF67F7319401143018366
:1045F00070470A460021018BC1F30E014FF6FF738D
:1046000003EA02231943018370470A460021818B84
:104610004FF67F7319401143818370470A4600218A
:10462000818BC1F30E014FF6FF7303EA0223194396
:10463000818370470A460021018C4FF6FD731940B3
:104640001143018470470A460021018C4FF6F7732D
:1046500019401143018470470A460021018C4FF62E
:10466000DF7319404FF6FF7303EA02131943018405
:1046700070470A460021018C4FF67F7319404FF6B0
:10468000FF7303EA02131943018470470A460021AD
:10469000018C4FF6FF5319404FF6FF7303EA0223D4
:1046A0001943018470470A460021018C4FF2FF73C1
:1046B00019404FF6FF7303EA022319430184704740
:1046C0000A460021018C4DF6FF7319404FF6FF7327
:1046D00003EA023319430184704730B500230124F3
:1046E0008C40A3B2048C9C430484048C02FA01F530
:1046F000ADB22C43048430BD30B5002304248C407B
:10470000A3B2048C9C430484048C02FA01F5ADB27C
:104710002C43048430BD70B50346002000241846A5
:10472000183001258D40ACB21D8CA5431D8409B104
:10473000082909D100EB6100056825F070050560C6
:104740000568154305600EE00D1FC5F34E052844AE
:10475000056825F4E045056005684FF6FF7606EA32
:1047600002263543056070BD21B1028842F0020285
:10477000028004E002884FF6FD731A400280704701
:1047800021B1028842F00402028004E002884FF660
:10479000FB731A400280704721B1828842F0800288
:1047A000828004E082884FF67F731A4082807047CF
:1047B00002884FF6F7731A40028002880A4302808B
:1047C000704782884FF68F731A40828082880A432E
:1047D0008280704702894FF6F8731A40028102897D
:1047E0000A430281704702894FF67F731A400281A3
:1047F00002890A430281704781847047818570472E
:10480000818670470187704781877047A0F8401004
:10481000704702884FF6FF431A40028002880A431D
:10482000028070470146888E70470146088F7047A6
:104830000146888F70470146B1F840007047014635
:10484000888C70470146088D704702460020138A05
:104850000B4201D0012000E000207047CA430282D1
:10486000704730B50246002000230024158A05EA6F
:104870000103958905EA010413B10CB1012000E0A0
:10488000002030BDCA430282704770470FB404490C
:1048900010B503AA029800F0E3F910BC5DF814FB10
:1048A0002800002070B50C460546012A05D028785E
:1048B000800600D5EA69002302E0012305E05B1CC5
:1048C000934202D2E05C0028F9D1A869E618C01A28
:1048D000A861286A184428622846AFF3008004E0E3
:1048E000D5E9012114F8010B9047B442F8D32846CA
:1048F000AFF3008070BD00002DE9F04106460024B2
:1049000010687529314616A511D0AFF30080002834
:1049100003DAC0F1000013A507E031688A0701D56A
:1049200011A502E0490704D510A5012401E0AFF369
:10493000008000210A2306F1240707E0B0FBF3F210
:1049400003FB1200303078541046491C0028F5D182
:1049500023462A463046BDE8F04100F00EB900007B
:10496000000000002D0000002B00000020000000CF
:1049700070B504460D4621461068AFF300802188CB
:10498000090502D5104A7A4402E00F4A7A440E32F1
:10499000002104F1240307E000F00F064FEA101095
:1049A000965D5E5401F101010028F5D1034620789F
:1049B000000704D5702D02D009B111320223204620
:1049C000BDE8704000F0D9B8CE0C00002DE9F041F0
:1049D0000F460546002028622846E968884770B3DC
:1049E000252805D0D5E901219047286A401CF2E727
:1049F000E9682846002688476C2804460AD0682CB7
:104A000008D04C2C35D06A2C31D0742C31D07A2C73
:104A10002FD016E0E968064628468847B04204468B
:104A200008D16C2E23D04FF480662846E968884769
:104A3000044606E06C2E03D04FF4807601E01EE0C1
:104A40004026E4B1A4F14100192802D8203446F4EC
:104A500000663A46214628462E60FBF7A3FB60B16C
:104A6000012808D0FF1D27F007070837B4E7802684
:104A7000DBE70026D9E73F1DAEE72046B2E7286A0C
:104A8000BDE8F081032A40F2308010F0030C00F002
:104A9000158011F8013BBCF1020F624498BF11F878
:104AA00001CB00F8013B38BF11F8013BA2F1040231
:104AB00098BF00F801CB38BF00F8013B11F00303A9
:104AC00000F02580083AC0F0088051F8043B083A0D
:104AD00051F804CBA0E80810F5E7121D5CBF51F8AF
:104AE000043B40F8043BAFF30080D20724BF11F829
:104AF000013B11F801CB48BF11F8012B24BF00F88E
:104B0000013B00F801CB48BF00F8012B704710B5FE
:104B1000203AC0F00B80B1E81850203AA0E81850B5
:104B2000B1E81850A0E81850BFF4F5AF5FEA027C76
:104B300024BFB1E81850A0E8185044BF18C918C0E5
:104B4000BDE810405FEA827C24BF51F8043B40F886
:104B5000043B08BF7047D20728BF31F8023B48BF6B
:104B600011F8012B28BF20F8023B48BF00F8012BA9
:104B7000704770477047704770472DE9F0470D4602
:104B800099469246044600F124080168880604D537
:104B9000E06921F01001216000E00120A84202DD5F
:104BA000A0EB050700E00027A16907EB050202EB77
:104BB0000900A1EB0000A0612078C00602D42046C5
:104BC000AFF30080002608E0D4E901211AF80600BE
:104BD0009047206A401C761C20624E45F4DB20780A
:104BE000C0060AD52046AFF3008006E0D4E90121D3
:104BF00030209047206A401C2062381EA7F1010730
:104C0000F4DC07E0D4E9012118F805009047206A98
:104C1000401C2062281EA5F10105F3DC2046AFF3FD
:104C200000802078000602D50220BDE8F087012030
:104C3000FBE710B5436913B1AFF3008001E0FFF764
:104C400031FE012010BD127800F124010A7000220B
:104C50004A700122EDE711684FF0FF32E9E70000EA
:104C6000074B70B50D467B4400F011F8044628460A
:104C700000F020F810B14FF0FF3070BD204670BD3D
:104C80001DD7FFFF01694A1C02610878704700B513
:104C90008FB0CDE901310021059105497944CDE975
:104CA000031011466846FFF791FE0FB000BD0000EB
:104CB000E5FFFFFF007B00F080007047754600F0C5
:104CC00029F8AE4605006946534620F007008546A0
:104CD00018B020B5FDF7D6FBBDE820404FF0000628
:104CE0004FF000074FF000084FF0000B21F00701D4
:104CF000AC46ACE8C009ACE8C009ACE8C009ACE817
:104D0000C0098D4670470446AFF300802046FBF78C
:104D100061FA0000004870474003002010B591EA96
:104D2000030F48BF83F0004300F1EC81841A71EB5C
:104D3000030C05D2121943EB0C03001B61EB0C01B1
:104D4000DFF824E14FEA1154A4EB135C1EEA430F91
:104D500018BF9EEA445F73D023EA0E03DCF1200EF5
:104D600021EA045143F4801332D322FA0CFE10EBF3
:104D70000E0023FA0CFE41EB0E01CCF1200E03FADB
:104D80000EFE10EB0E0051F10001B1F5801FCCF1C9
:104D9000200E32D201EB045112FA0EF2BDE810409F
:104DA00058BF7047401C38BF5FEA420218BF7047C7
:104DB000002814BF20F0010041F100014FEA410337
:104DC00013F5001F38BF7047A1F1C04100F08CB946
:104DD000012A43EB0302ACF1200CDCF11F0E32BFC1
:104DE0004FF0000E23FA0CF310EB030041EB0451DB
:104DF000B4EB115FD0D0A1EB045101F5801149084B
:104E00005FEA300001EB04510ED350F1000038BFCF
:104E100012FA0EFE08D1BDE81040C9E7401C38BFA9
:104E20005FEA4202CAD1C3E7BDE810404FEA41033E
:104E300013F5001F38BF7047A1F1C04100F054B90D
:104E40009EEA445F08D011EA5E0FBDE8104004BF3F
:104E500001F0004100207047BDE8104070B500F03F
:104E6000F5F800BF64FBBE3E0000E0FF4FEA4103DF
:104E70004FEA5353A3F58063D3F11E03C8BFD3F1A8
:104E8000210C0CDD4FF0004242EAC12242EA5052AE
:104E900032FA03FC8CEAE17CACEBE1707047102B3A
:104EA000C4BF0020704703F5787CBCF1FF3F04D0FD
:104EB0006FF0004282EA2100704770B500F0C6F83A
:104EC0004992248000207047F2E710F0004248BF6A
:104ED0004042B0FA80F310FA03F10AD0C3F11D0387
:104EE00003F580634FEA415002EB035202EBD121FC
:104EF00070474FF000007047DFF848C170B51CEAFA
:104F0000111E1EBF1CEA13159EEA0C0F95EA0C0F2A
:104F100000F06F8081EA030423EA4C134EEAD47E4A
:104F200021EA4C1141F4801143F48013AE44A1FBFB
:104F3000024CA0FB0365AEF17F7E361955EB0C05E4
:104F4000A1FB034C4CF10003A0FB021C16EB0C066A
:104F5000654153F10003094218BF46F0010613F4FE
:104F6000007F0BD14FEA03314FEA0530340341EAA9
:104F7000155140EA16506FF003020AE04FEAC321D0
:104F80004FEAC520F40241EA555140EA56506FF00D
:104F9000020202EB2E4201EB025585EACE710AD0E5
:104FA0005FEA440C18BF24F0004450F1000041F1C6
:104FB000000120EAD47040F2FE7C624500D270BD50
:104FC000A84214BF4FF080444FF04044002E08BF69
:104FD0000024BEF1806FA8BFA1F1C041BDE87040C0
:104FE00080F282804FF0000001F1C04101F00041E9
:104FF00070479EEA0C0F0CEA131518BF95EA0C0FC8
:1050000006D04FF0000081EA030E0EF0004170BDA3
:1050100000F01CF88900013E00F007B800F009B864
:105020004FEA430C5FEA5C5C08D081EA030100F0C0
:105030005BB84FEA410C5FEA5C5CF6D14FF00000D0
:10504000014970470000FF070000F87F0EF1020ED3
:105050002EF0030E5EF8046B364205D4012A43EBB2
:10506000030515F5001F12D8012841EB010C1CF5B2
:10507000001F0CD80ED14FEAD17C15F5001F0CEBA8
:105080004C0C0CF1020C08BF4CEBD37C04E04FF04D
:10509000080C01E04FEAD37C0CEB4C0526FA05F630
:1050A00006F00706B6F1040C06D20EEB860CBDE83E
:1050B00070404CF0010C6047DFE80CF0090B020275
:1050C0004FF000414FF00000A1F5002170BD1946DE
:1050D0001046012851EB010418BFD4F5001484BF19
:1050E000002001F0004170BD0808A0F500114FEA52
:1050F0003101704710B591EA030F48BF83F00043B8
:105100003FF514AE841A71EB030C07D212198CF020
:10511000004C43EB0C03001B61EB0C01DFF8A4E136
:105120004FEA1154A4EB135C1EEA430F18BF9EEA2A
:10513000445F00F0B08023EA6E03524221EA04513A
:10514000C3EB6E0338BF5B1EDCF1200E25D322FAC1
:105150000CFE10EB0E0043FA0CFE41EB0E01CCF1FD
:10516000200E03FA0EFE10EB0E0051F10001CCF1FF
:10517000200E29D412FA0EF201EB0451BDE81040C2
:1051800058BF7047401C1CBFB2F1004F7047002849
:105190000CBF491C20F00100704712EB020E43EBDC
:1051A000030218BF4FF0010E4EEA4202ACF1200C90
:1051B000DCF11E0E54D943FA0CFE10EB0E0051F137
:1051C000FF31CCF11E0ED5D50EF1010E12FA0EFEF6
:1051D000404141EB010101EB445C5FEA5C5C10D9AA
:1051E00010EBDE7001EB045138BFBEF1004FBDE89B
:1051F000104018BF704700280CBF491C20F0010068
:10520000704730D24FEAD42C11F5001124F4006419
:105210001BD0B1FA81F20B3AA41AA41ED2F12003DA
:10522000914030FA03F31943904001EBCC71002C0C
:1052300001EB0451BDE81040A8BF704701F1C04127
:105240004FF0000001F000417047B0FA80F310FA0F
:1052500003F100D110BDE41A173C4805C90AE4E780
:1052600001EB045110BD491001EB0451BDE81040A1
:105270004FEA300002E04FF0000170474A0008BFDB
:105280000042F8D0B2F5001F28BF704701F000417E
:105290004FF0000070479EEA445F07D011EA5E0FAE
:1052A000BDE8104004BF002100207047BDE8104059
:1052B00070B5FFF7CBFE00BF40DFF63E83F0004144
:1052C000104670470000E0FF1027000000180000A3
:1052D0000100000010004160200064600000000038
:1052E00000000000000000000000000000000000BE
:1052F0000000000002000000001400000100000097
:10530000100040601000716000000000000000000C
:10531000000000000000000000000000000000008D
:1053200002000000406000000000000000000000DB
:1053300002000000416000000000000000000000CA
:1053400002000000406000000000000000000000BB
:105350000200000017100000000000000000000024
:105360000200000016100000010000000000000014
:105370000400000060600000000000000000000069
:10538000020000007B60000001000000000000003F
:10539000040000007B60000002000000000000002C
:1053A000040000007D60000001000000000000001B
:1053B000040000007D60000002000000000000000A
:1053C00004000000806000000000000000000000F9
:1053D000040000007F6000000000000000000000EA
:1053E00004000000816000000000000000000000D8
:1053F00004000000836000000000000000000000C6
:1054000004000000846000000000000000000000B4
:1054100004000000856000000000000000000000A3
:1054200004000000C5600000000000000000000053
:1054300004000000C6600000000000000000000042
:105440000400000072600000000000000000000086
:105450000200000073600000000000000000000077
:105460000200000075600000000000000000000065
:105470000200000076600000000000000000000054
:1054800002000000546865206E756D6265722061CF
:105490006E64206C656E677468206F662074686542
:1054A000206F626A6563747320746F206265206D7B
:1054B000617070656420776F756C642065786365D2
:1054C00065642050444F206C656E6774680A000064
:1054D00044617461206C656E67746820646F6573E5
:1054E000206E6F74206D617463682C6C656E6774D8
:1054F00068206F66207365727669636520706172DB
:10550000616D6574657220646F6573206E6F7420C1
:105510006D617463680A000044617461206C656E9B
:1055200067746820646F6573206E6F74206D61749A
:1055300063682C6C656E677468206F662073657293
:105540007669636520706172616D6574657220743F
:105550006F6F20686967680A000000004461746129
:105560002063616E206E6F74207472616E73666565
:1055700072726564206F722073746F726564207438
:105580006F20746865206170706C69636174696F05
:105590006E2062656361757365206F66206C6F6352
:1055A000616C20636F6E74726F6C0A004461746189
:1055B0002063616E206E6F74207472616E73666515
:1055C00072726564206F722073746F7265642074E8
:1055D0006F20746865206170706C69636174696FB5
:1055E0006E2062656361757365206F6620746865FF
:1055F0002070726573656E742064657669636520DA
:1056000073746174650A00004F626A69656374208F
:1056100064696374696F6E6172792064796E616D1B
:1056200069632067656E65726174696F6E2066617B
:10563000696C73206F72206E6F206F626A6563748D
:105640002064696374696F6E617279206973207078
:10565000726573656E740A00303132333435363713
:1056600038394142434445464030580030313233A6
:1056700034353637383961626364656640307800A6
:10568000A056000800000020400000006C01000847
:10569000E056000840000020600900008801000872
:1056A00000000000C800000000A24A040000000042
:1056B00000000000010203040607080900000000C2
:1056C00000000000000000000000000000000000DA
:1056D0000102030401020304060708090204060884
:0400000508000131BD
:00000001FF
