:03000000020026D5
:0C002600787FE4F6D8FD75812002006DA3
:0C01A900011F00011C00011D00011E00D0
:10019300759850758920E4F587758DF3758BF3D2C7
:0601A300ACD2AFD28E22A7
:1000B200E4F520120193120003E4F51DE51DB401DD
:1000C200FBE508B40106E50924808004E50924C0A3
:1000D200FF1201B6D3E50A648094904003750A10BA
:1000E200752003AF0AEF3395E0FEEF2403FFE43EF1
:1000F200FEAD20ED3395E0FCC3ED9FEE6480F8EC9D
:10010200648098500E74082520F8E6FF1201C0059D
:0A0112002080D0E4F51EF51D80A248
:0300230002011CBB
:0B011C00C0E0C0D075D000C000C007DC
:10012700AF99C298E51D702CBFFA05F51C751D0126
:10013700E51CB401167408251EF8A6077408251EC9
:10014700F8E6F5993099FDC299051EBFF506751EAB
:0401570000751C0112
:09015B00D007D000D0D0D0E03272
:10016400C2B68F807F0A7E00120175D2B47F0A7EE8
:01017400008A
:10017500D3EF9400EE940040147D6E7C00ED1D706D
:0D018500011CED4C70F7EF1F70E61E80E3CB
:01019200224A
:0A01B600C2B4C2B5120164C2B42243
:0A01C000C2B4D2B5120164C2B42229
:100003007F381201B67F0C1201B67F061201B67F4C
:09001300011201B67F800201B662
:100032000200B2E493A3F8E493A34003F68001F232
:1000420008DFF48029E493A3F85407240CC8C333CF
:10005200C4540F4420C8834004F456800146F6DF9E
:10006200E4800B01020408102040809001A9E47E84
:10007200019360BCA3FF543F30E509541FFEE49393
:10008200A360010ECF54C025E060A840B8E493A35A
:10009200FAE493A3F8E493A3C8C582C8CAC583CA85
:1000A200F0A3C8C582C8CAC583CADFE9DEE780BE3D
:0101B5000049
:00000001FF
